:020000040800F2
:1000000018D000203D020008EF420008793D0008AA
:10001000E54200081D070008217A000800000000E2
:10002000000000000000000000000000990100082E
:10003000B909000800000000DD010008DF500008D9
:10004000570200085702000857020008570200082C
:10005000570200085702000857020008570200081C
:10006000570200085702000857020008570200080C
:1000700065090008570200087509000857020008C2
:1000800057020008570200085702000857020008EC
:1000900057020008570200085702000857020008DC
:1000A00057020008570200085702000857020008CC
:1000B00057020008570200085702000857020008BC
:1000C00057020008570200085702000857020008AC
:1000D000570200085702000857020008015B000899
:1000E00057020008570200081D4400085702000884
:1000F000570200085702000857020008570200087C
:10010000570200085702000857020008570200086B
:10011000570200085702000855520008570200080D
:10012000570200085702000857020008570200084B
:1001300057020008000000000000000057020008FD
:100140005702000857020008570200080D44000833
:10015000570200085702000857020008570200081B
:10016000570200085702000857020008570200080B
:1001700057020008570200080000000000000000BD
:1001800057020008DFF80CD000F0BEF80048004726
:10019000A97A000818D00020204B19680868B0E838
:1001A000F00F80F30988BFF36F8F4FF0000080F3EA
:1001B00011884EF00D0E70470000000006480068E0
:1001C000006880F3088862B661B6BFF34F8FBFF353
:1001D0006F8F00DF00BF00BF08ED00E0EFF3098084
:1001E000BFF36F8F0D4B1A6820E9F00F106008B550
:1001F0004FF0500080F3118808F0A0FB4FF0000092
:1002000080F31188BDE8084019680868B0E8F00F6D
:1002100080F30988BFF36F8F704700BFB4020020DE
:10022000EFF311804FF0500181F31188704780F394
:1002300011887047EFF3058070470000064880473B
:1002400006480047FEE7FEE7FEE7FEE7FEE7FEE7BB
:10025000FEE7FEE7FEE7FEE76551000885010008BE
:1002600040EA01039B0703D009E008C9121F08C038
:10027000042AFAD203E011F8013B00F8013B521EB8
:10028000F9D27047D2B201E000F8012B491EFBD22F
:1002900070470022F6E710B513460A460446194691
:1002A000FFF7F0FF204610BD30B505462A460B4645
:1002B00012F8010B13F8014B08B1A042F8D01CB1A1
:1002C000002802D06D1CF1E7284630BD421C10F812
:1002D000011B0029FBD1801A704730B5044600206D
:1002E000034600E05B1C934203D2E05CCD5C401B04
:1002F000F8D030BD034611F8012B00F8012B002A7D
:10030000F9D1184670470000064C074D06E0E0683A
:1003100040F0010394E8070098471034AC42F6D34C
:10032000FFF734FFF09200081093000870B58C18A6
:1003300010F8015B15F0070301D110F8013B2A11F9
:1003400006D110F8012B03E010F8016B01F8016BE6
:100350005B1EF9D12B0705D40023521E0DD401F8E2
:10036000013BFAE710F8013BCB1A921C03E013F8AB
:10037000015B01F8015B521EF9D5A142D8D30020E0
:1003800070BD00001FB5164816490860002048607F
:100390000021144881600121016181610021016215
:1003A000C162C1600121C16100210163012141617C
:1003B00000F0C0FC10B1112000F000FB0E200090F6
:1003C00001200190002002906946064800F0E8FBF9
:1003D00010B1122000F0F2FA024800F009FD1FBD32
:1003E000002001403C0400205A49096821F44031B2
:1003F000594AC2F804131146D1F804134268114354
:10040000544A11600168496821F4807102685160A2
:1004100001684A68016942EA012102685160016885
:10042000496821F04071026851600168496882683A
:100430001143026851600168896821F40061026813
:10044000916001688968C268114302689160434AFB
:10045000816A914218D00168896821F07061026850
:10046000916001688968826A11430268916001683D
:10047000896821F040510268916001688968C26A08
:100480001143026891600BE00168896821F0706196
:10049000026891600168896821F0405102689160AA
:1004A0000168896821F002010268916001688A6828
:1004B000816942EA410102689160016AD1B1016833
:1004C000496841F40061026851600168496821F49B
:1004D00060410268516001684A68416A491E4FF4F0
:1004E000604393FAA3F3B3FA83F399400A43016894
:1004F0004A6005E00168496821F4006102685160C2
:100500000168C96A21F470010268D1620168CA6A8F
:10051000818B491E42EA01510268D16201688968F3
:1005200021F400710268916001688A68016B42EAF7
:100530004121026891600168896821F48061026844
:10054000916001688A68416942EA8121026891608C
:100550007047000004230140002001400100000F0B
:1005600070B50446012500222903164800F0FEFF5D
:100570009F2003F025FF03F003FF207003F000FF2E
:10058000608003F0FDFE2071012211030D4800F090
:10059000EDFF2078202813D10001E0602079142895
:1005A00002D0182808D103E04FF48010A06006E0C4
:1005B0004FF48010A06002E00120A06000BF00BFE7
:1005C000284670BD000402400020704710B501208D
:1005D00003F092FE00F00EF820B9002004490870E4
:1005E000012010BD0120024908700020F9E7000039
:1005F0007601002008B5012000909DF8000008BD9C
:100600002DE9F04104460F4615469846264600223D
:100610004FF480510F4800F0A9FF032003F0D0FEF3
:10062000C6F3074003F0CCFEC6F3072003F0C8FE74
:10063000F0B203F0C5FE4FF6FF7000EA45213846E0
:1006400004F074FC01221103024800F08FFF002027
:10065000BDE8F081000402402DE9F04FADF5017DC9
:1006600080460F4691469B464FF0000A4FF40071BA
:1006700001A8FFF70EFE444617B11E48844204D974
:1006800001200DF5017DBDE8F08F4FEA49262CE0F1
:10069000E0B2C0F58075AE4200D2354603F05EFE92
:1006A00000224FF48051144800F060FF022003F054
:1006B00087FEC4F3074003F083FEC4F3072003F072
:1006C0007FFEE0B203F07CFEA9B207EB0A0004F063
:1006D000F3FB03F023FE01221103074800F046FF5D
:1006E00003F028FE2C44761BAA44002ED0D1002013
:1006F000C7E7000000FE0F000004024010B500F044
:100700008DFF04F0F2FC00F067F904F057FB04F0F1
:1007100097FB04F051FDFFF735FE10BD10B5042026
:1007200000F04CF910BD000070B50024012524A193
:100730002548FFF7B9FD98B1244825A10A68026051
:10074000097901710A20214948710624204603F0E5
:1007500091FB0120204908700020204908702DE0FD
:100760001FA11948FFF7A0FD50B100224FF480618E
:100770004FF4964003F094FB00201A4908601DE0F6
:10078000032211491848FFF7A8FDB0B90F481749CF
:100790000A6802608988818055200C49C87006214A
:1007A0000A4803F09DFB094988710724204603F09D
:1007B00061FB04200949087000E00025284670BD4F
:1007C0004C4350544D000000C40500204405002057
:1007D0004C43506F6B0000001000002020000020F0
:1007E0006D616C00180000202F0000202800002000
:1007F00010B504461B48007870BB1B4800780428DD
:1008000002D003201849087018480068401C174996
:1008100008600846006832280AD100224FF480613F
:100820004FF4964003F03CFB03200F4908700FE0A3
:100830000E48006864280BD1002211464FF4E130C5
:1008400003F02EFB002009490860032006490870C8
:10085000052003F053FB04E001225103044800F09B
:1008600085FE10BD10000020200000201800002090
:1008700000080240002070470020704770B5044611
:100880000E460025FF2280211148FFF7FBFC11488E
:100890000078401C0F490870A078022808D1E5783C
:1008A000AA1CA11C0A48FFF7DBFCA81CC5B207E084
:1008B000A11C0748FFF71EFD0548FFF707FDC5B25D
:1008C0000548007810B1284603F0D4FA002070BD26
:1008D000440500208C00002010000020024600206B
:1008E00070470000F0B585B004460F4615461AA0C3
:1008F00000680490194B0FCB8DE80F000026E8B27A
:10090000012810D1164800788DF811000220C4F893
:10091000F4010221A161E161022304AA0021204621
:1009200005F019FE14E0E8B204280CD10220C4F846
:10093000F4011021A161E16110236A4600212046E3
:1009400005F009FE04E00021204605F071FA0226B8
:1009500070B205B0F0BD00000100000090920008E8
:100960008C00002010B5024800F008FB10BD00000C
:10097000E404002010B5024800F000FB10BD0000A8
:10098000840400200146087810381823B0FBF3F2E5
:100990000848805CC865032A05D908686FF3090018
:1009A000001D886503E008686FF309008865886D9D
:1009B00070470000B49200087047000004460548E4
:1009C000047006E0022007F0DBF8024800780149D5
:1009D0000870F7E71C00002000B587B000BF0020BA
:1009E00001905048006840F004004E4908600846F5
:1009F000006800F00400019000BF00BF00BF0020AD
:100A000001900846006840F0080008600846006849
:100A100000F00800019000BF00BF00BF002001905F
:100A20000846006840F0010008600846006800F0D1
:100A30000100019000BF00BF00BF002001900846E8
:100A4000006840F0020008600846006800F00200FC
:100A5000019000BF00BF00224FF2A031324800F0E9
:100A600085FD002248F20F01304800F07FFD002292
:100A700040F6FF712E4800F079FD4FF2A030029051
:100A8000012003900020059002A9274800F064FC93
:100A90000F200290002003900120049002A9224818
:100AA00000F05AFC48F20F00029001200390002051
:100AB000059002A91D4800F04FFC10200290032071
:100AC000039002A9184800F047FC40F6FF7002901E
:100AD000012003900020059002A9154800F03CFC7D
:100AE0004FF40070029000200390049002A90F4878
:100AF00000F032FC4FF4806002900020039001204F
:100B0000049002A9094800F027FC0420029001206B
:100B100003900020049002A9064800F01DFC07B0D5
:100B200000BD0000303802400008024000000240D2
:100B300000040240000C024070B50A480468001D21
:100B40000568001D0668344454B108220649204651
:100B500003F017F9042204491031284603F011F973
:100B600070BD0000E8F7FF1FC600002070B50A48FE
:100B70000468001D0568001D0668344454B108224D
:100B80000649204603F01CF9042204491031284686
:100B900003F016F970BD0000E8F7FF1F5E010020AA
:100BA00018B502460020009000BF92F83C000128D2
:100BB00001D1022018BD012082F83C0000BF086866
:100BC000092816D91068C0680B780A3B03EB430468
:100BD0000723A34098431368D8600B780A3B03EBC4
:100BE0004303886898401368DB6818431368D8602B
:100BF00013E0106800690B7803EB43040723A3405C
:100C00009843136818610B7803EB43038868984096
:100C100013681B691843136818614868072817D2BE
:100C20001068406B0B795B1E03EB83041F23A3400A
:100C3000984313685863088880B20B795B1E03EBF6
:100C40008303984013685B6B18431368586331E063
:100C500048680D2817D21068006B0B79DB1F03EB77
:100C600083041F23A340984313681863088880B245
:100C70000B79DB1F03EB8303984013681B6B18434E
:100C80001368186316E01068C06A0B790D3B03EB1C
:100C900083041F23A34098431368D862088880B256
:100CA0000B790D3B03EB830398401368DB6A184311
:100CB0001368D8621B4B1068984208D10868122844
:100CC00005D11948006840F48000C3F80403154BAF
:100CD000106898421ED10868102802D008681128B0
:100CE00018D11148006840F400000F4B18600868E4
:100CF00010280FD10D4800680D4BB0FBF3F000EB4E
:100D000080004000009002E00098401E0090009893
:100D10000028F9D100BF002082F83C0000BF00BFCE
:100D200048E7000000200140042301407801002032
:100D300040420F0070B5044600250CB9012070BD7B
:100D40001549A06A884200D000BF206C30B900204D
:100D5000606484F83C00204600F020F8206C00F02D
:100D6000100088B9206C20F4885040F00200206404
:100D70002046FFF739FB00206064206C20F0020061
:100D800040F00100206400E0012500BF002084F84D
:100D90003C0000BF2846D2E70100000F10B586B026
:100DA000044610492068884219D100BF00200090F5
:100DB0000D48006840F480700B49086008460068E0
:100DC00000F48070009000BF00BF1020019003204D
:100DD00002900020039001A9044800F0BDFA06B07B
:100DE00010BD0000002001404438024000080240CD
:100DF00008B501460020009000BF91F83C00012892
:100E000001D1022008BD012081F83C0000BF086824
:100E1000806800F00100A0B90868806840F0010017
:100E20000A6890602E4800682E4AB0FBF2F000EB92
:100E30004000009002E00098401E009000980028BA
:100E4000F9D10868806800F00100002845D0086CDE
:100E500040F20162904340F4807008640868406882
:100E600000F4806028B1086C20F4005040F48050F9
:100E70000864086C00F4805020B1486C20F0060033
:100E8000486401E00020486400BF002081F83C0075
:100E900000BF6FF022000A6810601348006800F07D
:100EA0001F0058B90868806800F04050A8B9086869
:100EB000806840F080400A6890600EE00B4A086845
:100EC00090420AD10868806800F0405028B908684C
:100ED000806840F080400A689060002092E700003F
:100EE0007801002040420F0004230140002001400F
:100EF000014691F83500022803D080204865012082
:100F00007047052081F835000868006820F001006E
:100F10000A6810600020F3E770B504460CB90120A0
:100F200070BD94F83500022800D1F9E72068006808
:100F300020F0010021680860002021680860216815
:100F40004860216888602168C860216808612120A4
:100F5000216848612046FFF715FD054694F85C10AE
:100F60003F208840A8600020606584F8350000BFFD
:100F700084F8340000BF00BFD2E70000F8B5044693
:100F8000002000908D4800684FF41651B0FBF1F737
:100F9000A56D2E6894F85C1008208840304098B108
:100FA0002068006800F0040070B12068006820F03C
:100FB00004002168086094F85C1008208840A8604C
:100FC000606D40F00100606594F85C107C488840DA
:100FD000304068B12068406900F0800040B194F86A
:100FE0005C1077488840A860606D40F00200606542
:100FF00094F85C107248C01C8840304070B1206882
:10100000006800F0020048B194F85C106C48C01C05
:101010008840A860606D40F00400606594F85C1042
:1010200010208840304078B32068006800F0080045
:1010300050B394F85C1010208840A86020680068C5
:1010400000F4802080B12068006800F4002028B9F6
:10105000206CC8B12046216C884715E0A06C98B17F
:101060002046A16C88470FE02068006800F480707B
:1010700028B92068006820F0080021680860206C0A
:1010800010B12046216C884794F85C1020208840DD
:101090003040002865D02068006800F0100000286B
:1010A0005FD094F85C1020208840A86094F8350048
:1010B000052828D12068006820F016002168086003
:1010C0002068406920F0800021684861206C08B9E0
:1010D000A06C28B12068006820F008002168086032
:1010E00094F85C103F208840A86000BF002084F87E
:1010F000340000BF012084F83500206D10B1204677
:10110000216D8847F8BD2068006800F4802080B118
:101110002068006800F4002028B9606C10B12046F7
:10112000616C88471DE0E06BD8B12046E16B8847D1
:1011300017E02068006800F4807068B920680068D3
:1011400020F010002168086000BF002084F83400FF
:1011500000BF012084F83500E06B10B12046E16B40
:101160008847606D38B3606D00F00100F0B1052074
:1011700084F835002068006820F0010021680860CC
:1011800000BF0098401C0090B84200D905E02068DC
:10119000006800F001000028F3D100BF00BF00206C
:1011A00084F8340000BF012084F83500E06C10B1F1
:1011B0002046E16C884700BFA4E7000078010020CA
:1011C0000100800001B508E04FF0E020006900F464
:1011D000803010B10098401E009000980028F3D194
:1011E00008BD0000F0B50C460025002200230021B8
:1011F00097E0012606FA01F504EA0502AA427DD12C
:1012000006684FEA410C032707FA0CF7BE43066055
:10121000CF0800F1200656F827604F074FEAD76C39
:101220000F2707FA0CF7BE434FEAD10C00F1200755
:1012300047F82C6086684FEA410C032707FA0CF741
:10124000BE438660476801268E40B7434760C66844
:101250004FEA410C032707FA0CF7BE43C660334E32
:101260008F0856F827308E07370F0F26BE403340C1
:101270002F4EB04201D1002628E02E4EB04201D1BF
:10128000012623E02C4EB04201D102261EE02B4E57
:10129000B04201D1032619E0294EB04201D1042603
:1012A00014E0284EB04201D105260FE0264EB04290
:1012B00001D106260AE0254EB04201D1072605E0FD
:1012C000234EB04201D1082600E009268F073F0FC8
:1012D000BE409E4224D18E07370F0F2606FA07F331
:1012E000124E8F0856F827609E43104F4FEA910C1C
:1012F00047F82C60174E3668964300E010E0154F13
:101300003E603E1D366896433F1D3E603E1D36687A
:1013100096433F1D3E603E1D366896433F1D3E602E
:10132000491C1029FFF465AFF0BD000008380140EA
:10133000000002400004024000080240000C02408D
:10134000001002400014024000180240001C02403D
:1013500000200240003C0140F8B502460B46002543
:10136000002400200021E1E0012606FA01F51E68B4
:1013700006EA0504AC4273D15E68022E02D05E68B4
:10138000122E13D1CF0802F1200656F827004E077F
:10139000F70E0F26BE40B0434F07FF0E1E69BE403A
:1013A0003043CF0802F1200646F8270010684F00AE
:1013B0000326BE40B0431E7906F003064F00BE4030
:1013C000304310605E68012E08D05E68022E05D0A2
:1013D0005E68112E02D05E68122E13D190684F0005
:1013E0000326BE40B0434F00DE68BE4030439060ED
:1013F000506801268E40B0431E79C6F300168E4019
:1014000030435060D0684F000326BE40B0434F00C9
:101410009E68BE403043D0605E6806F08056B6F1EC
:10142000805FA8D100BF00260096424E366846F481
:101430008046404F3E603E46366806F48046009641
:1014400000BF00BF3C4E8F0856F827008E07370FAD
:101450000F26BE40B043394EB24202D1002629E0E9
:1014600063E0374EB24201D1012623E0354EB2424D
:1014700001D102261EE0344EB24201D1032619E00A
:10148000324EB24201D1042614E0314EB24201D1B3
:1014900005260FE02F4EB24201D106260AE02E4E5D
:1014A000B24201D1072605E02C4EB24201D10826F6
:1014B00000E009268F073F0FBE4030431E4E8F08C5
:1014C00046F82700264E3068A0435E6806F4803652
:1014D000B6F5803F00D12043214E3060361D306884
:1014E000A0435E6806F40036B6F5003F00D1204305
:1014F0001B4E361D3060361D3068A0435E6806F412
:101500008016B6F5801F00D12043154E0836306096
:10151000361D3068A0435E6806F40016B6F5001F5D
:1015200000D120430E4E0C363060491C1029FFF4C8
:101530001BAFF8BD443802400838014000000240AB
:101540000004024000080240000C0240001002406B
:101550000014024000180240001C0240002002401B
:10156000003C014042694A40426170470AB18161D2
:1015700001E00B0483617047014800687047000078
:101580007C0100200146002200BF91F838000128AC
:1015900001D102207047012081F8380000BF2420CB
:1015A00081F839000868C26822F00C0242F0040297
:1015B0000868C260202081F8390000BF002081F84F
:1015C000380000BF00BFE5E70146002200BF91F8E8
:1015D0003800012801D102207047012081F838002D
:1015E00000BF242081F839000868C26822F00C028C
:1015F00042F008020868C260202081F8390000BF6C
:10160000002081F8380000BF00BFE5E7024800680D
:10161000401C0149086070477C01002010B5084853
:10162000006840F4807006490860032000F0C6F8A6
:10163000002000F007F800F04BF8002010BD00007B
:10164000003C024070B588B0044600250026002208
:101650002146362000F074F8362000F064F800BF10
:10166000002001901648006840F0100014490860FE
:101670000846006800F01000019000BF00BF02A9FA
:1016800003A801F063F801F089F805460D48B5FBA1
:10169000F0F0461E0C480D49086040F2E7310B4857
:1016A000C160466000210161816001F0AAFE20B99D
:1016B000064801F0C1FE08B070BD0120FBE7000044
:1016C0004038024040420F0000100040800E0020D1
:1016D00010B5032000F072F8002211466FF00B00E5
:1016E00000F02EF8002211466FF00A0000F028F8F2
:1016F000002211466FF0090000F022F80022114686
:10170000501F00F01DF800221146101F00F018F8BD
:1017100000220F21901E00F013F800220F21501E0E
:1017200000F00EF810BD00BF00F01F020121914033
:101730004209920002F1E022C2F8001100BF704796
:101740002DE9F05F80460D461646002702F042FE66
:10175000074639462A46334601F00700C0F1070A1A
:10176000BAF1040F02D94FF0040A01E0C0F1070AF0
:10177000D14600F1040ABAF1070F02D24FF0000A75
:1017800001E0A0F1030AD4464FF0010A0AFA09FA6F
:10179000AAF1010A0AEA020A0AFA0CFA4FF0010B4E
:1017A0000BFA0CFBABF1010B0BEA030B4AEA0B043F
:1017B0002146404602F016FEBDE8F09F00BF00F053
:1017C0000702064B19684FF6FF031940044B0B4301
:1017D00043EA0221014B196000BF70470CED00E0A5
:1017E0000000FA0502461068416200207047F0B51B
:1017F00003461446002500221868426A21B942EACD
:1018000004401E68B06219E01868806A02EB10425A
:10181000002508E0186800F5827050F8250002EBFA
:101820001042681CC5B2481EA842F3D842EA0447D9
:10183000186800F582704E1E40F826700020F0BD3A
:1018400010B50446D4F8AC0304F054FD10BD70B5D7
:1018500004460D46C5EBC50304F1300101EB8301DD
:10186000CA682946D4F8AC0304F0A0FC70BD70B57A
:1018700004460D46C5EBC50304F5EA7101EB83018F
:10188000CA682946D4F8AC0304F0F1FC70BD10B569
:101890000446D4F8AC0304F030FD10BD70B5044626
:1018A0000D4605F08000802808D105F07F00C0EBD0
:1018B000C00104F1300000EB810607E005F07F0075
:1018C000C0EBC00104F5EA7000EB810605F07F0073
:1018D000307005F08000C009707000BF94F8780384
:1018E000012801D1022070BD012084F8780300BFD7
:1018F0003146206805F03AFB00BF002084F87803E9
:1019000000BF00BFEFE770B504460D4605F080004C
:10191000802808D105F07F00C0EBC00104F1300041
:1019200000EB810605E0C5EBC50104F5EA7000EBAC
:1019300081060020B07005F07F003070C5F3C01044
:10194000707000BF94F87803012801D1022070BDA7
:10195000012084F8780300BF3146206805F048FD77
:1019600000BF002084F8780300BF00BFEFE770B528
:1019700004460D4600BF94F87803012801D10220E7
:1019800070BD012084F8780300BF05F08000802836
:1019900005D105F07F01206805F03AFF02E02068DC
:1019A00005F020FF00BF002084F8780300BF00BFCF
:1019B000E6E7024601F07F00C0EBC00302F5EA70E3
:1019C00000EB8300008B80B270472DE9F04705469D
:1019D0000E4690461F464FF0000906F08000802812
:1019E00008D106F07F00C0EBC00105F1300000EB2C
:1019F000810407E006F07F00C0EBC00105F5EA7046
:101A000000EB810406F07F00207006F08000C00922
:101A10006070C4F80880E770607808B12078E080D2
:101A2000022F01D10020207100BF95F87803012812
:101A300002D10220BDE8F087012085F8780300BFBD
:101A40002146286805F0B4F900BF002085F8780326
:101A500000BF4846EEE72DE9F04104460E46174622
:101A6000984606F07F00C0EBC00104F5EA7000EB79
:101A70008105EF60C5F814800020A861687006F049
:101A80007F0028702069012800D12F6100BF94F8E1
:101A90007803012802D10220BDE8F081012084F8FA
:101AA000780300BF06F07F0028B9227C2946206811
:101AB00005F0A4FB04E0227C2946206805F022FD05
:101AC00000BF002084F8780300BF00BFE4E770B5D2
:101AD00004460D4605F08000802808D105F07F00FF
:101AE000C0EBC00104F1300000EB810605E0C5EB5E
:101AF000C50104F5EA7000EB81060120B07005F025
:101B00007F003070C5F3C010707000BF94F8780388
:101B1000012801D1022070BD012084F8780300BFA4
:101B20003146206805F0A8FC05F07F0028B9217C2B
:101B300004F55F72206805F039FC00BF002084F8CE
:101B4000780300BF00BFE6E72DE9F04104460E46EA
:101B50001746984606F07F00C0EBC00104F1300044
:101B600000EB8105EF60C5F814800020A86101201A
:101B7000687006F07F0028702069012800D12F616D
:101B800000BF94F87803012802D10220BDE8F0815B
:101B9000012084F8780300BF06F07F0028B9227C7A
:101BA0002946206805F02AFB04E0227C29462068AB
:101BB00005F0A8FC00BF002084F8780300BF00BF38
:101BC000E4E700002DE9FC5F044626684FF0000BB7
:101BD000002001908146002500908046FC4F20683F
:101BE00005F050FE002868D1206805F083FE08B992
:101BF000BDE8FC9F206805F07DFE00F00200022891
:101C000001D121684861206805F074FE00F40020CD
:101C1000B0F5002F7ED10025206805F041FE01902F
:101C200075E0019800F0010000286CD0E9B220684E
:101C300005F055FE814609F00100E8B3012106F5E3
:101C4000306000EB45108160206901282BD1C5EB85
:101C5000C50104F5EA7000EB8100816806F530608B
:101C600000EB45100069C0F31200091AC5EBC5026C
:101C700004F5EA7000EB82008161C5EBC50104F553
:101C8000EA7000EB8100C5EBC502C16804F5EA709B
:101C900000EB820080680144C5EBC50204F5EA70E0
:101CA00000EB8200C160E9B22046FFF7E0FD206949
:101CB000012811D105B901E00EE0A5E2C5EBC5018F
:101CC00004F5EA7000EB8100406928B904F55F7201
:101CD0000121206805F06AFB09F00800082808D1F6
:101CE000204600F025FC082106F5306000EB451089
:101CF000816009F01000102805D1102106F5306030
:101D000000EB451081606D1C01984008019001981E
:101D1000002800E000E084D1206805F0EBFD00F42D
:101D20008020B0F5802F7DD1206805F0B0FD0190B6
:101D3000002585E0019800F0010000287CD0E9B280
:101D4000206805F0B6FD814609F00100F0B30120DE
:101D5000A840009040F6340080590099884340F62E
:101D600034018851012106F5106000EB45108160B7
:101D70002069012815D1C5EBC50104F1300000EB45
:101D80008100C5EBC502C16804F1300000EB8200A0
:101D900080680144C5EBC50204F1300000EB82000D
:101DA000C160E9B22046FFF752FD2069012810D139
:101DB00065B9C5EBC50104F1300000EB8100406955
:101DC00020B904F55F720121206800E001E005F010
:101DD000EDFA09F00800082805D1082106F5106081
:101DE00000EB4510816009F01000102805D110218A
:101DF00006F5106000EB4510816009F040004028B6
:101E000005D1402106F5106000EB4510816009F016
:101E10000200022805D1022106F5106000EB4510F2
:101E2000816001E010E007E009F08000802803D124
:101E30002946204602F03EFB6D1C019840080190A7
:101E4000019800287FF476AF206805F053FD00F07C
:101E50000040B0F1004F0ED140F60400805920F050
:101E6000010140F604008151204600F03AFB4FF09A
:101E7000004021684861206805F03CFD00F40060E6
:101E8000B0F5006F0CD140F60800805900F0010059
:101E900010B1204600F070FB4FF4006021684861EB
:101EA000206805F027FD00F48050B0F5805F5AD11E
:101EB00040F60400805920F0010140F604008151F1
:101EC0000021206805F0A4FC4FF0000B0CE0FF217E
:101ED00006F5106000EB4B10816006F5306000EBFA
:101EE0004B1081600BF1010B60685845EFD84FF043
:101EF000FF3140F618008151001D805940F001115A
:101F000040F61C008151A06A70B1D6F8840840F0F8
:101F10000B01C6F8841840F64400805940F00B01CC
:101F200040F6440081510EE040F61400805940F024
:101F30000B0140F614008151001F805940F00B0145
:101F40004FF401608151D6F8000820F4FE60C6F815
:101F50000008217C04F55F72206805F027FA4FF431
:101F6000805021684861206805F0C4FC00F40050EE
:101F7000B0F5005F73D1206804F07CFF2068C06872
:101F800020F470502168C860206805F059FC58B9E9
:101F90000021E1604FF4007161612068C06840F485
:101FA00010502168C86088E00321E1604021616130
:101FB00000F0EEFB0746074887420FD306488742EA
:101FC0000CD22068C06840F470502168C86074E08A
:101FD000007A030AC0ACD800C0E1E4008B48874215
:101FE00009D38B48874206D22068C06840F460500D
:101FF0002168C86061E08648874209D385488742E6
:1020000006D22068C06840F450502168C86054E08F
:102010008048874209D38048874206D22068C0683A
:1020200040F440502168C86047E07B48874209D3AC
:102030007A48874206D22068C06840F43050216850
:10204000C8603AE0754887420AD37548874207D28C
:102050002068C06840F420502168C8602DE033E05B
:102060006F48874209D36F48874206D22068C0680C
:1020700040F410502168C8601FE06A48874209D3C5
:102080006948874206D22068C06840F40050216841
:10209000C86012E06448874209D36448874206D288
:1020A0002068C06840F4E0502168C86005E02068FE
:1020B000C06840F4C0502168C860204600F0F8F9BC
:1020C0004FF4005021684861206805F013FC00F0CF
:1020D0001000102845D12068806920F01000216888
:1020E0008861D6F8208008F00F00C0EBC00104F52D
:1020F000EA7000EB810AC8F3434002281AD147F680
:10210000F07008EA000030B3C8F30A123046DAF87B
:102110000C1005F0F5FBC8F30A11DAF80C000844BE
:10212000CAF80C00C8F30A11DAF818000844CAF813
:10213000180010E0C8F3434006280CD1082204F52B
:102140005F71304605F0DCFBC8F30A11DAF81800BD
:102150000844CAF818002068806940F0100021681F
:102160008861206805F0C6FB00F00800082805D14A
:10217000204600F0BDF9082021684861206805F07C
:10218000B9FB00F48010B0F5801F07D1E9B22046FA
:1021900000F04EF84FF4801021684861206805F087
:1021A000A9FB00F40010B0F5001F07D1E9B22046EA
:1021B00000F047F84FF4001021684861206805F0EE
:1021C00099FB00F08040B0F1804F06D12046FFF728
:1021D00037FB4FF0804021684861206805F08AFB9A
:1021E00000F0040004280FD12068D0F8048008F023
:1021F0000400042802D12046FFF749FB206840680C
:1022000040EA08002168486000BFF1E4C0E1E40052
:102210000024F40080730601A0491A01002D310149
:1022200040A44C0100366E0120ABA6010048E80135
:1022300070B504460D462946D4F8AC0304F0CAF83C
:1022400070BD70B504460D462946D4F8AC0304F0C1
:10225000C4F870BD30B589B00446002514B901201A
:1022600009B030BD032084F87903204600F094F8CB
:10227000206804F0BBFF202204F110016846FDF73E
:10228000EFFF94E80F0004F017FE0221206805F02C
:102290006DFB002530E00121C5EBC50204F13000E3
:1022A00000EB82004170C5EBC50204F1300000F87C
:1022B0002250C5EBC50200EB8200C5800021C5EBB2
:1022C000C50204F1300000EB8200C170C5EBC5020D
:1022D00004F1300000EB82008160C5EBC50204F11F
:1022E000300000EB8200C160C5EBC50204F1300094
:1022F00000EB820041616D1C0F2DCCD3002536E030
:102300000021C5EBC50204F5EA7000EB82004170C4
:10231000C5EBC50204F5EA7000F82250C5EBC50212
:1023200004F1300000EB8200C580C5EBC50204F566
:10233000EA7000EB8200C170C5EBC50204F5EA70DB
:1023400000EB82008160C5EBC50204F5EA7000EB8A
:102350008200C160C5EBC50204F5EA7000EB8200A3
:102360004161206800F5827040F825106D1C0F2D2A
:10237000C6D3202204F110016846FDF771FF94E8EE
:102380000F0004F065FE012084F87903206804F052
:1023900050FE002064E7000010B586B0044600BF80
:1023A000002000903F48006840F001003D4908606F
:1023B0000846006800F00100009000BF00BF4FF425
:1023C000C05001900220029000200390032004904E
:1023D0000A20059001A93448FEF7BEFF4FF40070B3
:1023E000019000200290039001A92F48FEF7B4FF4E
:1023F0004FF48060019012200290012003900A2087
:10240000059001A92848FEF7A7FF00BF2548001D39
:10241000006840F080002349091D086000BF0020CB
:10242000009020481430006840F480401D49143169
:1024300008600846006800F48040009000BF00BFBC
:1024400000BF002205214320FFF77AF94320FFF760
:102450006AF9206A012822D180041449086000BF6B
:1024600012480838006820F48020104908390860B4
:10247000081F006840F48020091F086000BF0B4857
:102480001438006840F4802008491439086000229C
:1024900011462A20FFF754F92A20FFF744F906B025
:1024A00010BD00003038024000000240143C0140E2
:1024B00070B504460125E06810B1022804D101E09E
:1024C000002503E0012501E0012500BF00BFD4F88D
:1024D000AC0303F0A5FF2946D4F8AC0303F0DAFF00
:1024E00070BD10B50446D4F8AC0303F0BBFF10BDBB
:1024F00010B50446D4F8AC0303F0BBFF10BD70B5B3
:1025000004460D4600BF94F87803012801D102204B
:1025100070BD012084F8780300BF2946206805F0CB
:102520003DFA00BF002084F8780300BF00BFEFE74A
:1025300010B5044604F55F71D4F8AC0303F0B8FF9E
:1025400010BD10B5044600BF94F87803012801D1EE
:10255000022010BD012084F8780300BF206804F039
:1025600059FD206805F036F900BF002084F8780393
:1025700000BF00BFEDE7000010B504462068D0F8AA
:10258000000E40F001002168C1F8000ED4F8AC0341
:1025900003F0D7FF206A28B10348006840F0060026
:1025A0000149086010BD000010ED00E070B5044660
:1025B0000D4600266148006800F00F00A84209D2CD
:1025C0005E490D700846006800F00F00A84201D077
:1025D000012070BD207800F00200022807D1584881
:1025E000006820F0F000A168084355490860207891
:1025F00000F00100002860D06068012807D1504831
:1026000008380068C0F34040A0B90120E1E76068E5
:10261000022807D14A4808380068C0F3406048B92A
:102620000120D6E7464808380068C0F3400008B9E2
:102630000120CEE74248006820F0030061680843AB
:102640003F490860FEF798FF06466068012810D1F0
:1026500008E0FEF791FF801B41F28831884201D9E2
:102660000320B6E73648006800F00C000428F0D1DB
:1026700023E06068022810D108E0FEF77DFF801B90
:1026800041F28831884201D90320A2E72C48006832
:1026900000F00C000828F0D10FE008E0FEF76CFF16
:1026A000801B41F28831884201D9032091E72448F8
:1026B000006800F00C000028F0D12048006800F00D
:1026C0000F00A84209D91D490D700846006800F0A6
:1026D0000F00A84201D001207BE7207800F0040021
:1026E000042807D11648006820F4E050E168084348
:1026F00013490860207800F00800082808D1104825
:10270000006820F46040216940EAC1000C4908607B
:1027100000F070F80A49096801F0F001F02292FA1D
:10272000A2F2B2FA82F2D140064A515CC840064990
:1027300008600020FEF786FF00204AE7003C0240C8
:1027400008380240BC920008780100200F22026085
:102750000D4A126802F0030242600B4A126802F04E
:10276000F0028260084A126802F4E052C260064A2F
:10277000126802F46042D2080261044A126802F050
:102780000F020A607047000008380240003C024017
:1027900001480068704700007801002000B5FFF78D
:1027A000F7FF0749096801F4E0514FF4E05292FA4B
:1027B000A2F2B2FA82F2D140024A515CC84000BD96
:1027C00008380240BC92000800B5FFF7E1FF074956
:1027D000096801F460414FF4604292FAA2F2B2FA41
:1027E00082F2D140024A515CC84000BD0838024024
:1027F000BC92000870B50021002200230020274C65
:10280000246804F00C0424B1042C04D0082C41D119
:1028100003E0234840E022483EE0204C241F246887
:1028200004F03F011D4C241F246804F4800484B18B
:102830001B4CB4FBF1F5194C241F246847F6C076F5
:10284000344096FAA6F6B6FA86F6F44005FB04F292
:102850000FE0134CB4FBF1F5104C241F246847F62D
:10286000C076344096FAA6F6B6FA86F6F44005FB32
:1028700004F20A4C241F246804F440344FF4403519
:1028800095FAA5F5B5FA85F5EC40641C6300B2FB3A
:10289000F3F001E0024800BF00BF70BD08380240FD
:1028A00000127A0038B504460025207800F00100B7
:1028B000002848D0DE48006800F00C0004280DD045
:1028C000DB48006800F00C00082811D1D848001F30
:1028D000006800F48000B0F5800F09D1D4480838B2
:1028E0000068C0F3404070B3606860BB012038BD31
:1028F0002079CF49891F0870606890B1FEF73CFECF
:10290000054606E0FEF738FE401B642801D9032087
:10291000EDE7C74808380068C0F340400028F1D010
:1029200011E0FEF729FE054606E0FEF725FE401BF6
:10293000642801D90320DAE7BD4808380068C0F3ED
:1029400040400028F1D1207800F00200022869D12F
:10295000B748006800F00C0058B1B548006800F0B6
:102960000C00082821D1B248001F006800F4800044
:10297000D8B9AF4808380068C0F3400020B1E0681B
:10298000012801D00120B2E7A9480838006820F0EA
:10299000F800F82292FAA2F2B2FA82F2216991408A
:1029A0000843A349083908603CE0E06828B30120E7
:1029B000A0490860FEF7E0FD054606E0FEF7DCFDF5
:1029C000401B022801D9032091E799480838006884
:1029D000C0F340000028F1D095480838006820F086
:1029E000F800F82292FAA2F2B2FA82F2216991403A
:1029F00008438F490839086014E000208D490860B9
:102A0000FEF7BAFD054606E0FEF7B6FD401B0228BC
:102A100001D903206BE7864808380068C0F34000FE
:102A20000028F1D1207800F0080008282CD1606936
:102A3000A8B1012080490860FEF79EFD054606E02A
:102A4000FEF79AFD401B022801D903204FE7784882
:102A50006C300068C0F340000028F1D014E0002082
:102A600075490860FEF788FD054606E0FEF784FD1F
:102A7000401B022801D9032039E76D486C300068FB
:102A8000C0F340000028F1D1207800F004000428B1
:102A900057D100BF0020009065483830006840F0F2
:102AA00080506349383108600846006800F0805063
:102AB000009000BF00BF6148006840F480705F492B
:102AC0000860FEF759FD054606E0FEF755FD401B80
:102AD000022801D903200AE75848006800F48070F2
:102AE0000028F2D0207A524968310870A068A0B15D
:102AF000FEF742FD054608E0FEF73EFD401B41F2B1
:102B00008831884201D90320F1E6494868300068DD
:102B1000C0F340000028EFD013E0FEF72DFD05467E
:102B200008E0FEF729FD401B41F28831884201D9B7
:102B30000320DCE63E4868300068C0F3400000280F
:102B4000EFD1A069F0B33A48006800F00C00082803
:102B500069D0A069022850D1002036490866FEF7E6
:102B60000BFD054606E0FEF707FD401B642801D972
:102B70000320BCE62E4808380068C0F340600028F7
:102B8000F1D1D4E90701084347F6C07292FAA2F2E4
:102B9000B2FA82F2616A914008430122A16AC2EB53
:102BA00051014FF4403292FAA2F2B2FA82F291400D
:102BB00008434FF0706292FAA2F2B2FA82F2E16A2E
:102BC000914000E031E008431949091F08600120E5
:102BD00018490866FEF7D0FC054606E0FEF7CCFC77
:102BE000401B642801D9032081E611480838006899
:102BF000C0F340600028F1D017E000200D490866BE
:102C0000FEF7BAFC054606E0FEF7B6FC401B64285A
:102C100001D903206BE6064808380068C0F340601D
:102C20000028F1D101E0012061E600205FE600000C
:102C30000838024000004742800E474200700040C2
:102C400010B504460CB9012010BD022084F85100D3
:102C50002068006820F0400021680860204600F0ED
:102C600051F80020606584F8510000BF84F85000DE
:102C700000BF00BFE8E710B504460CB9012010BD45
:102C8000606A00B900BF0021A16294F8510028B920
:102C9000002084F85000204600F062F8022084F8FA
:102CA00051002068006820F0400021680860D4E9E5
:102CB00001010843E1680843216908436169084349
:102CC000218B01F400710843E1690843216A08433C
:102CD000A16A0843216808600421A06901EA104044
:102CE000616A0843216848602068C06920F4006078
:102CF0002168C86100206065012084F8510000202F
:102D0000BDE7000010B504461049206888420AD18A
:102D10000F48006820F480500D490860F0210D48EC
:102D2000FEF760FA10E00C49206888420CD1084890
:102D3000001F006820F480400549091F08604FF417
:102D400060410648FEF74EFA10BD00000030014019
:102D500044380240000002400038004000040240B5
:102D600010B586B004462549206888421ED100BFB0
:102D7000002000902248006840F4805020490860FC
:102D80000846006800F48050009000BF00BFF020AB
:102D9000019002200290012003900320049005205E
:102DA000059001A91748FEF7D7FA24E016492068D4
:102DB000884220D100BF002000901148001F006809
:102DC00040F480400E49091F08600846006800F47E
:102DD0008040009000BF00BF4FF46040019002208F
:102DE000029001200390032004900520059001A982
:102DF0000648FEF7B1FA06B010BD000000300140F1
:102E00004438024000000240003800400004024004
:102E10002DE9F84304460D4617461E464FF00008BC
:102E2000C1466068B0F5827F0DD1A06858B9042012
:102E300084F851003B462A4629462046009600F079
:102E400070F9BDE8F88300BF94F85000012801D163
:102E50000220F6E7012084F8500000BFFEF78CFB4B
:102E6000804694F85100012802D04FF002097BE01F
:102E700005B117B94FF0010976E0042084F851003C
:102E800000206065A563A787E7872063A086E086AA
:102E900020646064A068B0F5004F05D12068006828
:102EA00020F48040216808602068006800F040003D
:102EB000402805D02068006840F040002168086084
:102EC000E068E8B918E02068806800F0010038B1D7
:102ED0002068007B28706D1CE08F401EE0870BE0AF
:102EE0003EB1701C40B1FEF747FBA0EB0800B042BA
:102EF00002D34FF0030937E0E08F0028E3D11CE054
:102F000018E02068806800F0010038B12068C068CF
:102F10002880AD1CE08F401EE0870BE03EB1701CA6
:102F200040B1FEF729FBA0EB0800B04202D34FF0FE
:102F3000030919E0E08F0028E3D16068B0F5827FD3
:102F40000DD1A068B0F5004F03D0A068B0F5806F38
:102F500005D12068006820F0400021680860606D9D
:102F600008B14FF0010900BF012084F8510000BFF3
:102F7000002084F8500000BF484662E72DE9F8437E
:102F800004460D4617461E464FF00008C14600BFD6
:102F900094F85000012802D10220BDE8F8830120F6
:102FA00084F8500000BFFEF7E7FA804694F851001D
:102FB000012802D04FF00209A9E005B117B94FF07E
:102FC0000109A4E0032084F8510000206065256316
:102FD000A786E786A063A087E08760642064A06876
:102FE000B0F5004F05D12068006840F480402168AA
:102FF00008602068006800F04000402805D0206884
:10300000006840F0400021680860E068B0F5006F9B
:103010002AD1606810B1E08E012806D12888216885
:10302000C860AD1CE08E401EE08619E02068806814
:1030300000F00200022807D128882168C860AD1C72
:10304000E08E401EE0860BE03EB1701C40B1FEF702
:1030500093FAA0EB0800B04202D34FF0030956E008
:10306000E08E0028E2D129E0606810B1E08E0128EE
:1030700006D12878216808736D1CE08E401EE0861A
:1030800019E02068806800F00200022807D1287843
:10309000216808736D1CE08E401EE0860BE03EB197
:1030A000701C40B1FEF768FAA0EB0800B04202D3F2
:1030B0004FF003092BE0E08E0028E2D133460122D5
:1030C00002212046CDF8008001F042FF10B14FF000
:1030D00003091CE042463146204601F013FF20B1AF
:1030E0004FF001092020606511E0A06850B900BFD1
:1030F000002000902068C0680090206880680090E0
:1031000000BF00BF606D08B14FF0010900BF012092
:1031100084F8510000BF002084F8500000BF4846EA
:103120003BE72DE9FE4F04460D4616461F46DDF8E7
:1031300030804FF0000A0020029081464FF0010BD2
:10314000019000BF94F85000012802D10220BDE890
:10315000FE8F012084F8500000BFFEF70DFA814673
:1031600094F851A060680290BAF1010F0BD0029858
:10317000B0F5827F04D1A06810B9BAF1040F02D073
:1031800002200190D2E00DB106B117B901200190E3
:10319000CCE094F85100012802D1052084F85100B8
:1031A00000206065A663E787A7872563E786A78673
:1031B000206460642068006800F04000402805D06A
:1031C0002068006840F0400021680860E068B0F5C1
:1031D000006F43D1606810B1E08E012806D12888C5
:1031E0002168C860AD1CE08E401EE0862FE0BBF178
:1031F000000F10D0E08E70B12068806800F00200EF
:10320000022808D128882168C860AD1CE08E401EC5
:10321000E0864FF0000BE08F68B12068806800F016
:10322000010040B12068C0683080B61CE08F401EAD
:10323000E0874FF0010B08F1010040B1FEF79CF967
:10324000A0EB0900404502D3032001906EE0E08E20
:103250000028CCD1E08F0028C9D142E0606810B1CD
:10326000E08E012806D12878216808736D1CE08E55
:10327000401EE0862FE0BBF1000F10D0E08E70B151
:103280002068806800F00200022808D115F8010BC0
:1032900021680873E08E401EE0864FF0000BE08F3F
:1032A00068B12068806800F0010040B12068C06803
:1032B00006F8010BE08F401EE0874FF0010B08F18C
:1032C000010040B1FEF758F9A0EB0900404502D3D8
:1032D000032001902AE0E08E0028CCD1E08F002866
:1032E000C9D14346012202212046CDF8009001F0C9
:1032F0002FFE10B10320019018E04A4641462046B7
:1033000001F000FE20B101200190202060650DE059
:10331000A06850B900BF002000902068C0680090ED
:1033200020688068009000BF00BF00BF012084F8C3
:10333000510000BF002084F8500000BF019806E74C
:10334000042808D14FF0E021096941F004014FF051
:10335000E022116107E04FF0E021096921F004014A
:103360004FF0E0221161704770B504462546681E93
:10337000B0F1807F01D301200FE0681E4FF0E02103
:1033800048610F214FF0FF3001F02CF800204FF082
:10339000E021886107200861002070BD70477047F8
:1033A000024600BF92F83800012801D10220704780
:1033B000012082F8380000BF022082F8390010682E
:1033C000406820F0700013685860106840680B680F
:1033D0001843136858601068806820F080001368F4
:1033E0009860106880684B681843136898600120E3
:1033F00082F8390000BF002082F8380000BF00BF0B
:10340000D5E710B504460CB9012010BD94F8390079
:1034100028B9002084F83800204600F00CF802207B
:1034200084F83900211D206801F01CFF012084F878
:1034300039000020E9E7704701460868C06840F09D
:1034400001000A68D0600868006840F001000A685E
:103450001060002070472DE9F04104460D4600261B
:1034600000BF94F83800012802D10220BDE8F081A5
:10347000012084F8380000BF022084F83900206859
:10348000866826F0770626F47F46206886602868DE
:1034900050283BD00CDC202860D004DC002853D01E
:1034A000102865D155E030285DD0402860D141E03A
:1034B000602835D070280DD0B0F5805F03D0B0F50E
:1034C000005F55D115E02068806820F00700216872
:1034D00088604EE0D5E902136A68206801F034FF85
:1034E0002068866826F0770646F0770620688660B2
:1034F0003FE0D5E902136A68206801F025FF2068E3
:10350000806840F480402168886032E0EA68696839
:10351000206802F061F85021206801F021FF28E0C6
:10352000EA686968206802F06CF86021206801F0A0
:1035300017FF1EE0EA686968206802F04DF8402134
:10354000206801F00DFF14E00021206801F008FF61
:103550000FE01021206801F003FF0AE0202120681D
:1035600001F0FEFE05E03021206801F0F9FE00E0E8
:1035700000BF00BF012084F8390000BF002084F89C
:10358000380000BF00BF71E7704710B504462068DF
:103590000069C0F34000D8B12068C068C0F34000A3
:1035A000B0B16FF002002168086101202076206828
:1035B000806900F0030018B12046FFF7E5FF05E041
:1035C000204600F0E7F8204600F000F900202076C1
:1035D00020680069C0F38000D8B12068C068C0F3DB
:1035E0008000B0B16FF004002168086102202076ED
:1035F0002068806900F4407018B12046FFF7C4FFCE
:1036000005E0204600F0C6F8204600F0DFF8002074
:10361000207620680069C0F3C000D8B12068C06877
:10362000C0F3C000B0B16FF0080021680861042049
:1036300020762068C06900F0030018B12046FFF72B
:10364000A3FF05E0204600F0A5F8204600F0BEF8F4
:103650000020207620680069C0F30010D8B12068EF
:10366000C068C0F30010B0B16FF0100021680861AD
:10367000082020762068C06900F4407018B1204608
:10368000FFF782FF05E0204600F084F8204600F0B6
:103690009DF8002020762068006900F0010058B1F4
:1036A0002068C06800F0010030B16FF001002168AF
:1036B0000861204600F08CF820680069C0F3C01053
:1036C00058B12068C068C0F3C01030B16FF08000FE
:1036D000216808612046FFF761FE20680069C0F399
:1036E000801058B12068C068C0F3801030B16FF00E
:1036F000400021680861204600F0A1F820680069B8
:10370000C0F3401058B12068C068C0F3401030B119
:103710006FF02000216808612046FFF740FE10BDD1
:1037200070B504460E46154600BF94F838000128CF
:1037300001D1022070BD012084F8380000BF0220B2
:1037400084F8390035B1042D09D0082D0CD00C2D8A
:1037500014D10EE03146206801F00CFE0FE0314636
:10376000206801F03FFE0AE03146206801F076FE55
:1037700005E03146206801F0ADFE00E000BF00BF6B
:10378000012084F8390000BF002084F8380000BF11
:1037900000BFCFE7704710B504460CB9012010BD3B
:1037A00094F8390028B9002084F83800204600F049
:1037B0000CF8022084F83900211D206801F052FD28
:1037C000012084F839000020E9E7704770470000C5
:1037D00010B5044603492068884201D1FDF716FF61
:1037E00010BD00000010004070B504460D4600BF3B
:1037F00094F83800012801D1022070BD012084F81E
:10380000380000BF022084F839002946204601F024
:1038100091FE2068C06820F040002168C8602068E0
:10382000C06820F480402168C860012084F8390015
:1038300000BF002084F8380000BF00BFDDE77047FC
:1038400010B504460CB9012010BD242084F83900BD
:10385000204600F0EDF80020E06384F8390084F899
:103860003A0000BF84F8380000BF00BFECE77047A3
:103870002DE9F0470446206805682068C66820687E
:1038800047694FF00008C14605F00F08B8F1000F76
:103890000AD105F0200038B106F0200020B1204602
:1038A00001F0EFFEBDE8F087B8F1000F6DD007F032
:1038B000010018B906F49070002866D005F00100E8
:1038C00030B106F4807018B1E06B40F00100E063A5
:1038D00005F0040030B107F0010018B1E06B40F0D2
:1038E0000200E06305F0020030B107F0010018B1FA
:1038F000E06B40F00400E06305F0080030B107F031
:10390000010018B1E06B40F00800E063E06B68B3C1
:1039100005F0200028B106F0200010B1204601F08B
:10392000B0FE20684069C0F38019E06B00F0080029
:1039300010B9B9F1000F22D0204601F082FE2068B4
:10394000406900F04000B0B12068406920F04000BC
:1039500021684861606B50B11748616B0865606B06
:10396000FDF7C6FA10B1606B016D88470CE0204688
:10397000FFF77DFF08E02046FFF779FF04E02046CF
:10398000FFF775FF0020E0638CE705F0800030B1A1
:1039900006F0800018B1204602F074F882E705F0C6
:1039A000400030B106F0400018B1204601F059FE49
:1039B00078E700BF76E700002F56000810B50446F0
:1039C0000CB9012010BDA06900B100E000BF94F85F
:1039D000390028B9002084F83800204600F046F865
:1039E000242084F839002068C06820F40050216841
:1039F000C860204601F092FE2068006920F49040E3
:103A0000216808612068406920F02A002168486127
:103A10002068C06840F400502168C8600020E0635E
:103A2000202084F8390084F83A000020CAE700001A
:103A300010B504460A492068884210D10948006838
:103A400020F48020074908604FF440610648FDF7E4
:103A5000C9FB206BFDF760FA606BFDF75DFA10BDE6
:103A600000480040403802400008024010B586B0CF
:103A700004461F492068884238D100BF00200090CA
:103A80001C48006840F400101A49086008460068A5
:103A900000F40010009000BF00BF00BF00200090A5
:103AA00014481030006840F480201249103108603A
:103AB0000846006800F48020009000BF00BF4FF46B
:103AC00040600190022002900020039001200490A9
:103AD0000720059001A90848FDF73EFC00220521BA
:103AE0002720FDF72DFE2720FDF71DFE06B010BD97
:103AF00000480040303802400008024010B503463C
:103B000093F83A00202829D101B10AB9012010BD4B
:103B100000BF93F83800012801D10220F7E7012007
:103B200083F8380000BF99629A85DA850020D8634F
:103B3000222083F83A0000BF002083F8380000BF3D
:103B40001868406940F001001C6860611868C0682E
:103B500040F490701C68E0600020D8E70220D6E7AF
:103B600070B50646002500245C48007806287BD204
:103B7000DFE800F0034DB17B8168594800780228E6
:103B800030D0FCF7D1FD28BB01E0601C84B2544862
:103B9000005D52280DD05248005D722809D050486F
:103BA000005D0A2805D04E48005D0D2801D0052C87
:103BB000EBDB052C0FDA052048490870C4F105003D
:103BC0004849088046480A4612888118012246481A
:103BD000FFF794FF01E000F02DF9444800684449E4
:103BE000086013E03E4840784249088001203B4984
:103BF000087040480088C01E82B23949491D3A48C1
:103C0000FFF77CFF394800683949086064E03948AB
:103C10000078401CC1B2324800F0FEF870B10020BC
:103C20002E49087033480078801CC1B22C4803F03C
:103C300079FE2E4800682E49086002E002202749DC
:103C4000087049E027480088401C2649088024481D
:103C50000A46128881183E222348FFF74FFF234867
:103C600000682349086037E035E0FCF75DFD08B9DE
:103C700000F0E0F830E01A480078E92827D1184829
:103C8000C07855280FD11848FFF7DAFD00221146F9
:103C90004FF4E13000F004F90120174908700020CA
:103CA0000E49087016E0154815490A6802608988AF
:103CB000818055201149C8700621104800F010F984
:103CC0000E4988710725284600F0D4F802E0032049
:103CD0000249087000E000BF00BF70BD2000002056
:103CE000C405002038000020FC0300202400002030
:103CF0003400002022000020100000204405002095
:103D00002800002010B5034693F83900202823D15D
:103D100001B10AB9012010BD00BF93F83800012895
:103D200001D10220F7E7012083F8380000BF1962B3
:103D30009A84DA840020D863212083F8390000BFF8
:103D4000002083F8380000BF1868C06840F0800089
:103D50001C68E0600020DEE70220DCE710B50446C6
:103D60000448007818B9052000F0C8F801E000F018
:103D700061F810BD1000002010B50220FCF71EFEF7
:103D800010BD30B50B46002100BF16E00A24B4EB8D
:103D9000107F05D9302404EB107403F8114005E0BE
:103DA000412404EB10740A3C03F811400001002583
:103DB0004C00641C1D554C1CE1B29142E6DB30BD49
:103DC00030B50B46002100BF16E00A24B4EB107F8B
:103DD00005D9302404EB107403F8114005E04124A8
:103DE00004EB10740A3C03F81140000100254C005C
:103DF000641C1D554C1CE1B29142E6DB30BD10B590
:103E000002460B460020002103E0545C60404C1C3D
:103E1000E1B29942F9DB10BD30B504460D462946A2
:103E20002046FFF7ECFF615D884201D1012030BDE3
:103E30000020FCE710B5FF2264210A48FCF722FAB3
:103E400000224FF480710848FDF790FB00200749DD
:103E500008700748FDF796FB052202490448FFF762
:103E60004DFE10BDC40500200004024020000020CB
:103E7000FC03002010B50446012211020548FDF79D
:103E800075FB0548FDF7A0FB224604490248FFF7F1
:103E900039FF10BD00040240FC030020440500204F
:103EA00070B505460C4616460B480C490860084696
:103EB000456014B90021816003E04FF48051074848
:103EC00081600648C66004610C2141610021816166
:103ED000C161FFF773FD70BD00480040FC03002086
:103EE00010B502460B460020002104E0545C044457
:103EF000E0B24C1CE1B29942F8DB10BD10B50446AB
:103F000064210948FCF7C5F900224FF48071074885
:103F1000FDF72CFB0648FDF735FB22460249044815
:103F2000FFF7ECFD10BD0000C405002000040240B6
:103F3000FC03002070B50546D5F8184242F20C008B
:103F40002044007B50B942F20C002044806828B124
:103F5000607A18B90121284602F0E1FA8121284649
:103F600002F0DDFA607A022807D11F2342F20C002A
:103F700022180121284602F043FA70BD70B50546AB
:103F8000D5F8184242F20C002044406842F22C015D
:103F90002144486042F20C002044806842F22C0127
:103FA000214488600121284602F0BEF91F2817D15C
:103FB00042F20C0000592B49884211D142F20C0008
:103FC0002044407B01280BDC42F20C002044807B23
:103FD000012805DB42F20C002044807B10280EDD16
:103FE00042F20C002044417B20230522284600F0A9
:103FF000BCFD022060722846FFF79CFF31E042F2D0
:104000000C002044417B42F20C0022180F3228465B
:1040100000F010FB00280BDA207A052804D10121DA
:10402000284600F0C1F81CE02846FFF783FF18E09F
:10403000207A022815D0207A012812D0207A03286D
:104040000FD06089002806DD628904F10C01284642
:1040500000F0CAF805E0608918B90021284600F090
:10406000A3F870BD5553424370B506460D46D6F8C9
:104070001842607A022806D18121304602F04FFAB8
:10408000002060720AE005F08000802806D1607A86
:10409000012803D00121304600F086F870BD70B5CC
:1040A00005460E46D5F81842207A022804D0032887
:1040B00015D0042818D111E042F20C002044417BB5
:1040C00042F20C0022180F32284600F0B3FA002802
:1040D00003DA0121284600F067F806E000BF00215E
:1040E000284600F061F800E000BF00BF70BD70B569
:1040F00005460E46D5F81842207A10B1012816D18F
:1041000003E02846FFF73AFF12E042F20C00204499
:10411000417B42F20C0022180F32284600F08AFA46
:10412000002803DA0121284600F03EF800E000BF35
:1041300000BF70BDD0F8181200220A72704770B527
:104140000546D5F81842002020726072002142F224
:104150005D000155401E0155D5F81C020168002084
:1041600088470121284602F0D5F88121284602F02F
:10417000D1F81F2342F20C0022180121284602F038
:104180003FF970BD70B50546D5F818420020207281
:10419000012060721F2342F20C00221801212846E0
:1041A00002F02EF970BD000070B505460E46D5F838
:1041B00018420C4942F22C000151204406730020A1
:1041C00020720D2342F22C0022188121284602F091
:1041D000C2F91F2342F20C0022180121284602F0E6
:1041E0000FF970BD555342532DE9F04106460F4675
:1041F0001546D6F8184242F20C0020448068A842C6
:1042000004D242F20C002044806800E0284685B2C7
:1042100042F22C0020448068401B42F22C012144D1
:104220008860002042F22C0121440873042020728F
:104230002B463A468121304602F08DF9BDE8F081E7
:1042400010B5002421480068401C2049086020481F
:10425000007805281FD1084600681E490968401AE1
:104260000A2831D91C48C08D401D3E2801DD3E245E
:1042700003E01948C08D401DC4B22146174803F021
:1042800051FB002016490880114908700F4800684A
:104290001049086018E00E480078012802D00C4848
:1042A000007888B9094800680A490968401A42F24A
:1042B0001071884208D90020094908800449087013
:1042C000024800680349086010BD00002400002077
:1042D0002000002034000020FC030020C405002042
:1042E0003800002010B50320FCF768FB10BD10B5A6
:1042F0000120FCF763FB10BD10B50446012C05D16D
:10430000002201030448FDF731F904E00122110302
:104310000148FDF72BF910BD0004024010B501243F
:1043200000BF00F037F8044604F001000028F8D17F
:1043300010BD000010B500224FF480510648FDF773
:1043400015F9042000F03CF8012211030248FDF7A2
:104350000DF9FFF7E3FF10BD0004024010B5002285
:104360004FF480510548FDF701F9062000F028F8C8
:10437000012211030148FDF7F9F810BD00040240C5
:1043800008B5002000900121684600F0CFFD9DF89F
:10439000000008BD10B500224FF480510748FDF71A
:1043A000E5F8052000F00CF8FFF7EAFF04460122CB
:1043B00011030248FDF7DAF8204610BD0004024060
:1043C00001B582B0012201A902A800F087FD9DF885
:1043D00004000EBD02480068C0F3022070470000D0
:1043E0000CED00E010B5002807DA0A07140E054AA4
:1043F00000F00F031B1FD45403E00A07130E024AF8
:10440000135410BD18ED00E000E400E010B50248C0
:10441000FDF7D8FB10BD0000440700202048006ACB
:10442000B0B32048006820F006001E490860012053
:104430001D49087000BF1C48801E0068C0F3404042
:104440000028F8D001201949086600BF1648801ED0
:104450000068C0F340600028F8D01348801D006851
:1044600020F00300801C1049891D086000BF0E4821
:10447000801D006800F00C000828F8D1084800688A
:10448000D0F8000E20F0010005490968C1F8000EBF
:104490004FF48020064908608000086070470000E3
:1044A0004407002010ED00E00238024000004742BF
:1044B000143C01402DE9F84F07460E46D7F800801E
:1044C0000025AA46C6EBC60107F1300000EB8104C7
:1044D000D4E90501451AA068A84200D2A568E81CE5
:1044E0004FEA900917E0D4E90501451AA068A842EF
:1044F00000D2A568E81C4FEA9009387CABB2F2B252
:1045000000904046E16803F063FAE0682844E06008
:10451000A0692844A06108F5106000EB461080698E
:1045200080B2484506D9D4E90510884202D26069B4
:104530000028D8D165B9012000FA06FA40F6340007
:1045400050F8080020EA0A0040F6340141F808005B
:104550000020BDE8F88F2DE9F04104460F461546CE
:104560001E46D4F81882A91942F2600050F80800DB
:10457000814209D9212305223946204600F0F5FA67
:104580004FF0FF30BDE8F0810020FBE7F0B50446B6
:104590000D46D4F81862507800F0010010B10E4BAF
:1045A00007210CE0D4F81C02C06905EBC50700EB3D
:1045B00087031879411D1079884200DC11797181D7
:1045C00005E0481E81B25F5C06F10C0047540029EB
:1045D000F7D10020F0BD0000CC92000870B5034672
:1045E0000C4615460821D3F81822518106E0481ED2
:1045F00081B20448465C02F10C0046540029F6D111
:10460000002070BDDB92000870B503460C461546CD
:10461000D3F818220821518106E0481E81B20448CF
:10462000465C02F10C0046540029F6D1002070BD12
:10463000D392000870B505460E461446207823280C
:1046400045D00DDC1A2836D005DCB0B103281AD0CD
:1046500012285AD11DE01B2821D01E2855D124E054
:104660002A2846D004DC252837D028284DD13AE026
:104670002F2844D05A2848D123E0224631462846E4
:1046800000F0A1FA70BD22463146284600F01EFA1D
:10469000F8E7224631462846FFF778FFF2E7224640
:1046A0003146284600F087FAECE722463146284694
:1046B00000F081FAE6E7224631462846FFF7A4FFDC
:1046C000E0E7224631462846FFF788FFDAE7224630
:1046D0003146284600F0B5F9D4E72246314628464F
:1046E00000F065F9CEE722463146284600F0DDF8B5
:1046F000C8E722463146284600F0BCFAC2E7224607
:104700003146284600F08CFABCE7202305223146CA
:10471000284600F02AFA4FF0FF30B3E72DE9F047C2
:1047200006460F46D6F8184242F268000059B0F526
:10473000005F03D242F26800005901E04FF40050DC
:10474000054642F25E00005BB5FBF0F01FFA80F810
:1047500042F264000159801F005BB1FBF0F9D6F80A
:104760001C0243464A4604F10C01D0F810C03846FA
:10477000E047002809DA112304223946304600F0C8
:10478000F4F94FF0FF30BDE8F087ABB204F10C0252
:104790008121304601F0DFFE42F2640000594119E8
:1047A00042F264000151001D0059411B42F26800B1
:1047B000015142F22C0020448068401B42F22C013F
:1047C0002144886042F26800005908B90320207231
:1047D0000020D8E72DE9F04706460F46D6F81842E4
:1047E00042F268000059B0F5005F03D242F268005F
:1047F000005901E04FF40050054642F25E00005BB4
:10480000B5FBF0F01FFA80F842F264000159801FF6
:10481000005BB1FBF0F9D6F81C0243464A4604F1AE
:104820000C01D0F814C03846E047002809DA032309
:1048300004223946304600F098F94FF0FF30BDE8C9
:10484000F08742F264000059411942F264000151BC
:10485000001D0059411B42F26800015142F22C0038
:1048600020448068401B42F22C012144886042F2BF
:104870006800005920B900213046FFF795FC12E08E
:1048800042F268000059B0F5005F03D242F26800BE
:10489000005901E04FF4005083B204F10C020121F1
:1048A000304601F0ADFD0020C9E72DE9F041064694
:1048B0000F461546D6F81842207A00286FD142F2EA
:1048C0000C002044007B00F0800080280CD042F2D5
:1048D0000C002044417B20230522304600F045F99E
:1048E0004FF0FF30BDE8F081D6F81C0281683846F1
:1048F000884740B13A2302223946304600F035F964
:104900004FF0FF30EEE7A8780006E97840EA014072
:10491000297940EA01206979084342F2640108518B
:10492000287AE97940EA012142F268000151005BEE
:1049300083B242F26400025939463046FFF70BFE5B
:10494000002802DA4FF0FF30CCE70220207242F25A
:104950006400005942F25E01095B484342F264017F
:104960000851081D0059891F095B484342F268013C
:10497000085142F20C002044816842F2680000595C
:1049800081420CD042F20C002044417B20230522BE
:10499000304600F0EAF84FF0FF30A3E7FFE74FF4AE
:1049A0000050608139463046FFF7B8FE9AE72DE99E
:1049B000F04105460E461746D5F81842D5F81C02B8
:1049C000436842F25E002218801C21183046984746
:1049D00048B13A2302223146284600F0C6F84FF08B
:1049E000FF30BDE8F08142F260000059401E000E29
:1049F000207342F260000059401E010C617342F2C4
:104A00006000005B401E010AA17342F26000005D7D
:104A1000401EE07342F25E00005B0116217442F218
:104A20005E00005B0114617442F25E00005B0112E3
:104A3000A17442F25E00015DE174082060810020F3
:104A4000CFE72DE9FC4105460F469046D5F81842C0
:104A5000002605E0002104F10C008155701C86B28F
:104A60000C2EF7DBD5F81C0201AA694643683846CC
:104A7000984748B13A2302223946284600F075F893
:104A80004FF0FF30BDE8FC810821E1730098401E23
:104A9000010E21740098401E010C61740098401EA4
:104AA000010AA1740098401EE07402212175BDF82E
:104AB000040001146175BDF804000112A175BDF870
:104AC0000400E0750C2060810020DBE770B504462F
:104AD0000D46D4F81812002305E0002601F10C0061
:104AE000C654581CC3B2122BF7DB702008730C2677
:104AF000CE7442F25C00465C401C405C86422BD087
:104B000042F25C00405C42F23C060E4416F8306013
:104B10008E7342F25C00405C42F23C060E4406EBAF
:104B2000C00046790E7642F25C00405C42F23C06E0
:104B30000E4406EBC00006794E7642F25C00405C03
:104B4000401CC6B242F25C004654405C042803D1CB
:104B5000002642F25C004654122048811079122847
:104B600001DC10794881002070BDF0B50446D4F80E
:104B7000180242F25D052D5C42F23C06064406F83E
:104B800035201E0242F25D052D5C42F23C070744CF
:104B900007EBC5056E6042F25D052D5C6D1CEEB243
:104BA00042F25D052E542D5C042D03D1002642F205
:104BB0005D052E54F0BD10B503460C46D3F818120F
:104BC0000020488110BD2DE9F04105460E461746EC
:104BD000D5F8184242F20C002044806860B142F2DD
:104BE0000C002044417B202305222846FFF7BDFF0F
:104BF0004FF0FF30BDE8F081D5F81C0281683046E7
:104C0000884748B13A23022231462846FFF7ADFFD4
:104C100005202072801FEDE70020608100BFE9E7DA
:104C20002DE9F04105460F461646D5F81842707832
:104C300000F00200022809D1242305223946284623
:104C4000FFF793FF4FF0FF30BDE8F08142F26800BC
:104C5000005B83B242F26400025939462846FFF7EE
:104C60007AFC002802DA4FF0FF30EDE70020608187
:104C700000BFE9E72DE9F04106460F461546D6F894
:104C80001842207A00287BD142F20C002044007B9D
:104C900000F0800080280CD142F20C002044417BBF
:104CA000202305223046FFF760FF4FF0FF30BDE8BC
:104CB000F081D6F81C0281683846884740B13A2313
:104CC000022239463046FFF750FF4FF0FF30EEE743
:104CD000D6F81C02C1683846884740B12723022213
:104CE00039463046FFF741FF4FF0FF30DFE7A87845
:104CF0000006E97840EA0140297940EA0120697913
:104D0000084342F264010851287AE97940EA012116
:104D100042F268000151005B83B242F26400025922
:104D200039463046FFF717FC002802DA4FF0FF3013
:104D3000BDE742F26400005942F25E01095B48435C
:104D400042F264010851081D0059891F095B48435C
:104D500042F26801085142F20C002044816842F29C
:104D60006800005981420CD042F20C002044417B83
:104D7000202305223046FFF7F8FE4FF0FF3096E77C
:104D800015E00120207242F268000059B0F5005F82
:104D900003D242F26800005901E04FF4005083B2A0
:104DA00004F10C020121304601F02AFB04E03946EF
:104DB0003046FFF70FFD7AE7002078E700B585B0B1
:104DC000E020009002200190039069461548FCF70E
:104DD000C3FA102000900120019002200390694640
:104DE0001048FCF7B9FA1048104908604FF4827077
:104DF000486000210D488160C160016141614FF44C
:104E0000802181610021C1610162416281620A21C8
:104E1000C162FDF730FF10B10920FBF7CFFD05B0EF
:104E200000BD000000000240003001406803002087
:104E300010B50248FDF704FF10BD0000100300206C
:104E400000B585B04FF460400090022001900390BF
:104E500069461648FCF780FA4FF480500090012014
:104E600001900220039069461048FCF775FA10483B
:104E7000104908604FF48270486000210D4881603D
:104E8000C160016141614FF4802181610021C161F4
:104E90000162416281620A21C162FDF7ECFE10B13C
:104EA0000820FBF78BFD05B000BD000000040240A8
:104EB000003800401003002070B504460D4600265F
:104EC00064232A4621460448FEF758F806460EB1E8
:104ED000FFF7AEFF70BD000010030020F8B50446D8
:104EE0000D4616460027642033462A462146009088
:104EF0000348FEF716F907460FB1FFF799FFF8BD13
:104F000010030020F8B504460D4616462B46002235
:104F100080212046009600F01BF828B1606D40F01B
:104F2000200060650320F8BD0020FCE770B5044652
:104F30000D46002664232A4621460448FDF768FFF3
:104F400006460EB1FFF774FF70BD0000100300208D
:104F50002DE9F04104460E4617461D46DDF818803F
:104F60003FE0681CE0B32DB1FCF706FBA0EB0800A6
:104F7000A84236D32068406820F0E00021684860ED
:104F80006068B0F5827F0DD1A068B0F5004F03D006
:104F9000A068B0F5806F05D12068006820F040005F
:104FA00021680860A06AB0F5005F0ED100BF2068DC
:104FB00000684DF6FF7108402168086020680068AD
:104FC00040F400502168086000BF012084F85100BF
:104FD00000BF002084F8500000BF0320BDE8F0812E
:104FE000FFE7206880683040B04201D1012000E036
:104FF0000020B842B5D10020F0E72DE9FF41074677
:105000000C4615464FF0FF36FBF7F4FA60B16846E0
:10501000FBF7A6FADDE90201B0FBF1F0401E2060CB
:105020000398401E28800026304604B0BDE8F08179
:105030000020704710B50446FBF7C8FA002010BDE9
:1050400070B505464FF0FF34FBF7D4FA70B10B484A
:1050500090F90000002804DAFBF7B8FA00200749AD
:105060000870FBF7B1FA38B9002405E0034800786E
:1050700010B9FF2001490870204670BD24010020AE
:105080000146002070472DE9F04180460D46144648
:105090001E464FF0FF37FBF7ADFA38B160023346DA
:1050A0004FF400722946FBF7ABFA00273846BDE8FB
:1050B000F0812DE9F04180460D4614461E464FF022
:1050C000FF37FBF797FA38B1600233464FF40072AE
:1050D0002946FBF7C1FA00273846BDE8F08110B534
:1050E00002F05FFDFFF7ACF810BD10B592B00120E3
:1050F0000690079002200C9041050D9104210E911D
:10510000C0210F91042110910821119106A8FDF7EB
:10511000C9FB10B10620FBF751FC0F2001900220C3
:105120000290002003904FF4A050049005900321BA
:1051300001A8FDF73BFA10B10720FBF73FFCFDF794
:1051400027FB4FF47A71B0FBF1F42046FEF70CF91F
:105150000420FEF7F5F800220F21501EFCF7F0FAAC
:1051600012B010BD1048006840F001000E49086000
:1051700000200D49083108600B4800680B490840C1
:10518000094908600A48091D0860081F006820F4E2
:105190008020091F0860002003490C3108604FF08F
:1051A000006004490860704700380240FFFFF6FEC7
:1051B0001030002408ED00E000B593B04FF08040BF
:1051C0002349086000204860002121488160C160B7
:1051D0000161FEF716F910B10A20FBF7EFFB4FF45F
:1051E00080500F900FA91A48FEF735F910B10B2027
:1051F000FBF7E4FB1648FEF7CEFA10B10C20FBF7E4
:10520000DDFB04200A9000200B900AA91048FEF74D
:10521000EBFA10B10D20FBF7D1FB002008900990AC
:1052200008A90B48FEF7BCF810B10E20FBF7C6FB2F
:1052300000200190029003900590002201A90448EB
:10524000FEF76EFA10B10F20FBF7B8FB13B000BDEC
:10525000C003002010B50248FEF797F910BD00000A
:10526000800E0020002202682C4B98420ED0B0F134
:10527000804F0BD02A4B984208D02A4B984205D039
:10528000294B984202D0294B984201D1012300E0DA
:1052900000231BB122F070024B681A431F4B984247
:1052A00020D0B0F1804F1DD01D4B98421AD01D4B1D
:1052B000984217D01C4B984214D01C4B984211D0E6
:1052C0001B4B98420ED01B4B98420BD01A4B984266
:1052D00008D01A4B984205D0194B984202D0194B6E
:1052E000984201D1012300E000231BB122F4407257
:1052F000CB681A4302608B68C3620B688362074BFA
:10530000984202D0094B984201D1012300E00023CA
:105310000BB10B6903630123436170470000014037
:105320000004004000080040000C00400004014060
:105330000040014000440140004801400018004086
:10534000001C00400020004030B50C460021816860
:1053500021F47F4142EA032525432943816030BD82
:105360000A460021816821F0700142F007031943C9
:105370008160704730B5002400220023056A25F0C3
:1053800001050562026A4368846924F0700424F010
:1053900003040D682C4322F002028D682A430F4D4E
:1053A000A84202D00E4DA84201D1012500E00025FF
:1053B0006DB122F00802CD682A4322F0040223F4E2
:1053C000807323F400734D692B438D692B43436035
:1053D00084614D684563026230BD000000000140F9
:1053E0000004014030B5002400220023056A25F0A6
:1053F00010050562026A4368846924F4E04424F4D9
:1054000040740D6844EA052422F020028D6842EAC7
:105410000512104DA84202D00F4DA84201D101251E
:1054200000E0002585B122F08002CD6842EA051235
:1054300022F0400223F4806323F400634D6943EAC1
:1054400085038D6943EA8503436084614D68856304
:10545000026230BD000001400004014030B500246C
:1054600000220023056A25F480750562026A4368FC
:10547000C46924F0700424F003040D682C4322F462
:1054800000728D6842EA0522104DA84202D0104DEC
:10549000A84201D1012500E0002585B122F4006277
:1054A000CD6842EA052222F4806223F4805323F47B
:1054B00000534D6943EA05138D6943EA05134360C0
:1054C000C4614D68C563026230BD00000000014048
:1054D0000004014030B5002200230024056A25F4B1
:1054E00080550562036A4468C26922F4E04222F4EE
:1054F00040720D6842EA052223F400538D6843EAA6
:1055000005330A4DA84202D0094DA84201D1012518
:1055100000E0002525B124F480444D6944EA851457
:105520004460C2614D680564036230BD0000014003
:10553000000401402DE9F04104460D4600260027F5
:10554000B0462068866826F070066868064326F034
:1055500007062868064320688660686800F00F0127
:10556000002935D10011082832D2DFE800F02D2EB5
:105570002F300B212704D5E90313AA682068FFF711
:10558000E3FE26E02068D0F820802068006A20F042
:105590000100216808622068876927F0F007286900
:1055A00047EA0017206887612068C0F8208010E073
:1055B0002A69A968206800F00FF80AE02A69A9683A
:1055C000206800F01EF804E003E002E001E000E0E3
:1055D00000BF00BFBDE8F08130B50B461446002186
:1055E0000022026A056A25F001050562816921F041
:1055F000F00141EA041122F00A021A4381610262B9
:1056000030BD30B50B46144600210022056A25F056
:10561000100505628169026A21F4704141EA043192
:1056200022F0A00242EA03128161026230BD70B52D
:105630000546AC6B0020E085E0842046FEF717F9B4
:1056400070BD0168C96821F490710268D160016879
:10565000496921F0010102685161202180F83A1066
:10566000704710B504462068C06820F040002168EB
:10567000C860202084F839002046FEF76FFB002028
:1056800010BD70B5044694F83A00222844D1A068B1
:10569000B0F5805F13D1A56A206940B920684068E1
:1056A000C0F308002880A06A801CA06219E020686E
:1056B0004068C0B22880A06A401CA06211E0206946
:1056C00038B920684068C1B2A26A501CA06211704B
:1056D00007E02068406800F07F01A26A501CA062C9
:1056E0001170E08D401E80B2E08598B92068C068D6
:1056F00020F490702168C8602068406920F00100A3
:1057000021684861202084F83A002046FEF728FAF4
:10571000002070BD0020FCE70220FAE72DE9F041EF
:10572000044600252068056925F44055E0680543D6
:10573000206805612068C56849F20C6085432169CD
:10574000A068084361690843E1690843054320688C
:10575000C5602068456925F44075A0690543206847
:105760004561E069B0F5004F7ED1C44920688842A8
:1057700003D0C349206888425DD1FDF725F800EBCE
:10578000C00101EB001061684900B0FBF1F0642139
:10579000B0FBF1F00601FDF717F800EBC00101EBDB
:1057A000001061684900B0FBF1F7FDF70DF800EB60
:1057B000C00101EB001061684900B0FBF1F0642109
:1057C000B0FBF1F000EBC00101EB0010A7EB800093
:1057D000322101EBC0006421B0FBF1F000F0F800D1
:1057E00006EB4006FCF7F0FF00EBC00101EB0010F8
:1057F00061684900B0FBF1F7FCF7E6FF00EBC00180
:1058000001EB001061684900B0FBF1F06421B0FBCE
:10581000F1F000EBC00101EB0010A7EB800032219A
:1058200001EBC0006421B0FBF1F000F00700304450
:105830002168886020E1FCF7B1FF00EBC00101EBBB
:10584000001061684900B0FBF1F06421B0FBF1F099
:105850000601FCF7A3FF00EBC00101EB001061683B
:105860004900B0FBF1F700E045E0FCF797FF00EBE3
:10587000C00101EB001061684900B0FBF1F0642148
:10588000B0FBF1F000EBC00101EB0010A7EB8000D2
:10589000322101EBC0006421B0FBF1F000F0F80010
:1058A00006EB4006FCF77AFF00EBC00101EB0010AD
:1058B00061684900B0FBF1F7FCF770FF00EBC00135
:1058C00001EB001061684900B0FBF1F06421B0FB0E
:1058D000F1F000EBC00101EB0010A7EB80003221DA
:1058E00001EBC0006421B0FBF1F000F00700304490
:1058F00021688860C0E061492068884203D060491F
:10590000206888425CD1FCF75FFF00EBC00101EB2F
:10591000001061688900B0FBF1F6FCF755FF00EB61
:10592000C00101EB001061688900B0FBF1F0642157
:10593000B0FBF1F000EBC00101EB0010A6EB800022
:10594000322101EB00106421B0FBF1F000F0F00611
:10595000FCF73AFF00EBC00101EB00106168890021
:10596000B0FBF1F06421B0FBF1F006EB0016FCF7A0
:105970002BFF00EBC00101EB001061688900B0FB58
:10598000F1F7FCF721FF00EBC00101EB00106168AB
:105990008900B0FBF1F06421B0FBF1F000EBC00135
:1059A00001EB0010A7EB8000322101EB0010642115
:1059B000B0FBF1F000F00F003044216888605BE03C
:1059C000FCF7ECFE00EBC00101EB00106168890000
:1059D000B0FBF1F6FCF7E2FE00EBC00101EB0010BA
:1059E00061688900B0FBF1F06421B0FBF1F000EBDD
:1059F000C00101EB0010A6EB8000322101EB00108A
:105A00006421B0FBF1F000F0F006FCF7C7FE00EBFC
:105A1000C00101EB001061688900B0FBF1F0642166
:105A2000B0FBF1F006EB0016FCF7B8FE00EBC0018E
:105A300001EB001061688900B0FBF1F7FCF7AEFEE6
:105A400000EBC00101EB001061688900B0FBF1F0D0
:105A50006421B0FBF1F000EBC00101EB0010A7EBFB
:105A60008000322101EB00106421B0FBF1F000F066
:105A70000F00304421688860BDE8F08100100140CB
:105A800000140140014691F83900212833D188687B
:105A9000B0F5805F16D10A6A1078184B1880184646
:105AA0000088C0F308001880184600880B6858600A
:105AB000086918B9086A801C086209E0086A401C75
:105AC000086205E00B6A581C086218780B68586079
:105AD000C88C401E80B2C88458B90868C06820F0DD
